{
  "contractName": "Market",
  "abi": [
    {
      "anonymous": false,
      "inputs": [
        {
          "indexed": false,
          "internalType": "uint256",
          "name": "id",
          "type": "uint256"
        },
        {
          "indexed": false,
          "internalType": "string",
          "name": "name",
          "type": "string"
        }
      ],
      "name": "CommodityCreated",
      "type": "event"
    },
    {
      "anonymous": false,
      "inputs": [
        {
          "indexed": false,
          "internalType": "uint256",
          "name": "id",
          "type": "uint256"
        }
      ],
      "name": "CommoditySold",
      "type": "event"
    },
    {
      "inputs": [],
      "name": "commodityCount",
      "outputs": [
        {
          "internalType": "uint256",
          "name": "",
          "type": "uint256"
        }
      ],
      "stateMutability": "view",
      "type": "function",
      "constant": true
    },
    {
      "inputs": [
        {
          "internalType": "uint256",
          "name": "",
          "type": "uint256"
        }
      ],
      "name": "commodityList",
      "outputs": [
        {
          "internalType": "uint256",
          "name": "id",
          "type": "uint256"
        },
        {
          "internalType": "string",
          "name": "name",
          "type": "string"
        },
        {
          "internalType": "uint256",
          "name": "price",
          "type": "uint256"
        },
        {
          "internalType": "string",
          "name": "category",
          "type": "string"
        },
        {
          "internalType": "string",
          "name": "imgPath",
          "type": "string"
        },
        {
          "internalType": "string",
          "name": "description",
          "type": "string"
        },
        {
          "internalType": "address",
          "name": "sellerAddress",
          "type": "address"
        },
        {
          "internalType": "uint256",
          "name": "soldCount",
          "type": "uint256"
        },
        {
          "internalType": "bool",
          "name": "isDeleted",
          "type": "bool"
        }
      ],
      "stateMutability": "view",
      "type": "function",
      "constant": true
    },
    {
      "inputs": [
        {
          "internalType": "string",
          "name": "_name",
          "type": "string"
        },
        {
          "internalType": "uint256",
          "name": "_price",
          "type": "uint256"
        },
        {
          "internalType": "string",
          "name": "_category",
          "type": "string"
        },
        {
          "internalType": "string",
          "name": "_imgPath",
          "type": "string"
        },
        {
          "internalType": "string",
          "name": "description",
          "type": "string"
        },
        {
          "internalType": "address",
          "name": "sellerAddress",
          "type": "address"
        }
      ],
      "name": "createCommodity",
      "outputs": [],
      "stateMutability": "nonpayable",
      "type": "function"
    },
    {
      "inputs": [
        {
          "internalType": "uint256",
          "name": "_id",
          "type": "uint256"
        }
      ],
      "name": "soldCommodity",
      "outputs": [],
      "stateMutability": "nonpayable",
      "type": "function"
    },
    {
      "inputs": [
        {
          "internalType": "uint256",
          "name": "_id",
          "type": "uint256"
        }
      ],
      "name": "deleteCommodity",
      "outputs": [],
      "stateMutability": "nonpayable",
      "type": "function"
    }
  ],
  "bytecode": "0x60806040526000805534801561001457600080fd5b5061148b806100246000396000f3fe608060405234801561001057600080fd5b50600436106100575760003560e01c806375c60ea71461005c5780638ffc2d091461008a5780639e0783b6146102b0578063d074a3161461055a578063efea6dbf14610588575b600080fd5b6100886004803603602081101561007257600080fd5b81019080803590602001909291905050506105a6565b005b6100b6600480360360208110156100a057600080fd5b8101908080359060200190929190505050610a07565b604051808a8152602001806020018981526020018060200180602001806020018873ffffffffffffffffffffffffffffffffffffffff168152602001878152602001861515815260200185810385528d818151815260200191508051906020019080838360005b8381101561013857808201518184015260208101905061011d565b50505050905090810190601f1680156101655780820380516001836020036101000a031916815260200191505b5085810384528b818151815260200191508051906020019080838360005b8381101561019e578082015181840152602081019050610183565b50505050905090810190601f1680156101cb5780820380516001836020036101000a031916815260200191505b5085810383528a818151815260200191508051906020019080838360005b838110156102045780820151818401526020810190506101e9565b50505050905090810190601f1680156102315780820380516001836020036101000a031916815260200191505b50858103825289818151815260200191508051906020019080838360005b8381101561026a57808201518184015260208101905061024f565b50505050905090810190601f1680156102975780820380516001836020036101000a031916815260200191505b509d505050505050505050505050505060405180910390f35b610558600480360360c08110156102c657600080fd5b81019080803590602001906401000000008111156102e357600080fd5b8201836020820111156102f557600080fd5b8035906020019184600183028401116401000000008311171561031757600080fd5b91908080601f016020809104026020016040519081016040528093929190818152602001838380828437600081840152601f19601f820116905080830192505050505050509192919290803590602001909291908035906020019064010000000081111561038457600080fd5b82018360208201111561039657600080fd5b803590602001918460018302840111640100000000831117156103b857600080fd5b91908080601f016020809104026020016040519081016040528093929190818152602001838380828437600081840152601f19601f8201169050808301925050505050505091929192908035906020019064010000000081111561041b57600080fd5b82018360208201111561042d57600080fd5b8035906020019184600183028401116401000000008311171561044f57600080fd5b91908080601f016020809104026020016040519081016040528093929190818152602001838380828437600081840152601f19601f820116905080830192505050505050509192919290803590602001906401000000008111156104b257600080fd5b8201836020820111156104c457600080fd5b803590602001918460018302840111640100000000831117156104e657600080fd5b91908080601f016020809104026020016040519081016040528093929190818152602001838380828437600081840152601f19601f820116905080830192505050505050509192919290803573ffffffffffffffffffffffffffffffffffffffff169060200190929190505050610ce2565b005b6105866004803603602081101561057057600080fd5b8101908080359060200190929190505050610f0e565b005b6105906113a4565b6040518082815260200191505060405180910390f35b6000600160008381526020019081526020016000206040518061012001604052908160008201548152602001600182018054600181600116156101000203166002900480601f01602080910402602001604051908101604052809291908181526020018280546001816001161561010002031660029004801561066a5780601f1061063f5761010080835404028352916020019161066a565b820191906000526020600020905b81548152906001019060200180831161064d57829003601f168201915b5050505050815260200160028201548152602001600382018054600181600116156101000203166002900480601f0160208091040260200160405190810160405280929190818152602001828054600181600116156101000203166002900480156107165780601f106106eb57610100808354040283529160200191610716565b820191906000526020600020905b8154815290600101906020018083116106f957829003601f168201915b50505050508152602001600482018054600181600116156101000203166002900480601f0160208091040260200160405190810160405280929190818152602001828054600181600116156101000203166002900480156107b85780601f1061078d576101008083540402835291602001916107b8565b820191906000526020600020905b81548152906001019060200180831161079b57829003601f168201915b50505050508152602001600582018054600181600116156101000203166002900480601f01602080910402602001604051908101604052809291908181526020018280546001816001161561010002031660029004801561085a5780601f1061082f5761010080835404028352916020019161085a565b820191906000526020600020905b81548152906001019060200180831161083d57829003601f168201915b505050505081526020016006820160009054906101000a900473ffffffffffffffffffffffffffffffffffffffff1673ffffffffffffffffffffffffffffffffffffffff1673ffffffffffffffffffffffffffffffffffffffff168152602001600782015481526020016008820160009054906101000a900460ff1615151515815250509050600181610100019015159081151581525050806001600084815260200190815260200160002060008201518160000155602082015181600101908051906020019061092c9291906113aa565b506040820151816002015560608201518160030190805190602001906109539291906113aa565b5060808201518160040190805190602001906109709291906113aa565b5060a082015181600501908051906020019061098d9291906113aa565b5060c08201518160060160006101000a81548173ffffffffffffffffffffffffffffffffffffffff021916908373ffffffffffffffffffffffffffffffffffffffff16021790555060e082015181600701556101008201518160080160006101000a81548160ff0219169083151502179055509050505050565b6001602052806000526040600020600091509050806000015490806001018054600181600116156101000203166002900480601f016020809104026020016040519081016040528092919081815260200182805460018160011615610100020316600290048015610ab95780601f10610a8e57610100808354040283529160200191610ab9565b820191906000526020600020905b815481529060010190602001808311610a9c57829003601f168201915b505050505090806002015490806003018054600181600116156101000203166002900480601f016020809104026020016040519081016040528092919081815260200182805460018160011615610100020316600290048015610b5d5780601f10610b3257610100808354040283529160200191610b5d565b820191906000526020600020905b815481529060010190602001808311610b4057829003601f168201915b505050505090806004018054600181600116156101000203166002900480601f016020809104026020016040519081016040528092919081815260200182805460018160011615610100020316600290048015610bfb5780601f10610bd057610100808354040283529160200191610bfb565b820191906000526020600020905b815481529060010190602001808311610bde57829003601f168201915b505050505090806005018054600181600116156101000203166002900480601f016020809104026020016040519081016040528092919081815260200182805460018160011615610100020316600290048015610c995780601f10610c6e57610100808354040283529160200191610c99565b820191906000526020600020905b815481529060010190602001808311610c7c57829003601f168201915b5050505050908060060160009054906101000a900473ffffffffffffffffffffffffffffffffffffffff16908060070154908060080160009054906101000a900460ff16905089565b600080815480929190600101919050555060405180610120016040528060005481526020018781526020018681526020018581526020018481526020018381526020018273ffffffffffffffffffffffffffffffffffffffff16815260200160008152602001600015158152506001600080548152602001908152602001600020600082015181600001556020820151816001019080519060200190610d899291906113aa565b50604082015181600201556060820151816003019080519060200190610db09291906113aa565b506080820151816004019080519060200190610dcd9291906113aa565b5060a0820151816005019080519060200190610dea9291906113aa565b5060c08201518160060160006101000a81548173ffffffffffffffffffffffffffffffffffffffff021916908373ffffffffffffffffffffffffffffffffffffffff16021790555060e082015181600701556101008201518160080160006101000a81548160ff0219169083151502179055509050507faf0968850081f0375e798b47079241b371257fc34c462abe8aae30c92c6d1553600054876040518083815260200180602001828103825283818151815260200191508051906020019080838360005b83811015610ecb578082015181840152602081019050610eb0565b50505050905090810190601f168015610ef85780820380516001836020036101000a031916815260200191505b50935050505060405180910390a1505050505050565b6000600160008381526020019081526020016000206040518061012001604052908160008201548152602001600182018054600181600116156101000203166002900480601f016020809104026020016040519081016040528092919081815260200182805460018160011615610100020316600290048015610fd25780601f10610fa757610100808354040283529160200191610fd2565b820191906000526020600020905b815481529060010190602001808311610fb557829003601f168201915b5050505050815260200160028201548152602001600382018054600181600116156101000203166002900480601f01602080910402602001604051908101604052809291908181526020018280546001816001161561010002031660029004801561107e5780601f106110535761010080835404028352916020019161107e565b820191906000526020600020905b81548152906001019060200180831161106157829003601f168201915b50505050508152602001600482018054600181600116156101000203166002900480601f0160208091040260200160405190810160405280929190818152602001828054600181600116156101000203166002900480156111205780601f106110f557610100808354040283529160200191611120565b820191906000526020600020905b81548152906001019060200180831161110357829003601f168201915b50505050508152602001600582018054600181600116156101000203166002900480601f0160208091040260200160405190810160405280929190818152602001828054600181600116156101000203166002900480156111c25780601f10611197576101008083540402835291602001916111c2565b820191906000526020600020905b8154815290600101906020018083116111a557829003601f168201915b505050505081526020016006820160009054906101000a900473ffffffffffffffffffffffffffffffffffffffff1673ffffffffffffffffffffffffffffffffffffffff1673ffffffffffffffffffffffffffffffffffffffff168152602001600782015481526020016008820160009054906101000a900460ff16151515158152505090508060e00180518091906001018152505080600160008481526020019081526020016000206000820151816000015560208201518160010190805190602001906112929291906113aa565b506040820151816002015560608201518160030190805190602001906112b99291906113aa565b5060808201518160040190805190602001906112d69291906113aa565b5060a08201518160050190805190602001906112f39291906113aa565b5060c08201518160060160006101000a81548173ffffffffffffffffffffffffffffffffffffffff021916908373ffffffffffffffffffffffffffffffffffffffff16021790555060e082015181600701556101008201518160080160006101000a81548160ff0219169083151502179055509050507fbd5993871c81a22c73adbe68435e5b5ea707f33fe97d641d0e79c82b211b5c7f826040518082815260200191505060405180910390a15050565b60005481565b828054600181600116156101000203166002900490600052602060002090601f0160209004810192826113e05760008555611427565b82601f106113f957805160ff1916838001178555611427565b82800160010185558215611427579182015b8281111561142657825182559160200191906001019061140b565b5b5090506114349190611438565b5090565b5b80821115611451576000816000905550600101611439565b509056fea26469706673582212204d9b2b6d0948b39a76154e5221c87772cdb81aa5f0f123068efd8c963e87cc1e64736f6c63430007060033",
  "immutableReferences": {},
  "source": "pragma solidity ^0.7.0;\n\ncontract Market {\n    // Struct\n    struct Commodity {\n        uint id;\n        string name;\n        uint price;\n\n        string category;\n        string imgPath;\n        string description;\n        address sellerAddress;\n\n        uint soldCount;\n        bool isDeleted;\n    }\n\n    // Globals\n    uint public commodityCount = 0;\n    mapping(uint => Commodity) public commodityList;\n\n    // Events\n    event CommodityCreated(\n        uint id,\n        string name\n    );\n\n    event CommoditySold(\n        uint id\n    );\n\n\n    function createCommodity(\n        string memory _name,\n        uint _price,\n        string memory _category,\n        string memory _imgPath,\n        string memory description,\n        address sellerAddress\n    ) public {\n        commodityCount++;\n\n        commodityList[commodityCount] = Commodity(\n            commodityCount,\n            _name,\n            _price,\n            _category,\n            _imgPath,\n            description,\n            sellerAddress,\n            0,\n            false\n        );\n\n        emit CommodityCreated(commodityCount, _name);\n    }\n\n    function soldCommodity(uint _id) public {\n        Commodity memory _commodity = commodityList[_id];\n        _commodity.soldCount++;\n\n        commodityList[_id] = _commodity;\n        emit CommoditySold(_id);\n    }\n\n    function deleteCommodity(uint _id) public {\n        Commodity memory _commodity = commodityList[_id];\n        _commodity.isDeleted = true;\n\n        commodityList[_id] = _commodity;\n    }\n}",
  "sourcePath": "/home/ubuntu/transaction-truffle/contracts/Market.sol",
  "compiler": {
    "name": "solc",
    "version": "0.7.6+commit.7338295f.Emscripten.clang"
  },
  "schemaVersion": "3.4.14",
  "updatedAt": "2023-05-29T02:36:47.718Z",
  "networkType": "ethereum",
  "devdoc": {
    "kind": "dev",
    "methods": {},
    "version": 1
  },
  "userdoc": {
    "kind": "user",
    "methods": {},
    "version": 1
  }
}