{
  "contractName": "Market",
  "abi": [
    {
      "anonymous": false,
      "inputs": [
        {
          "indexed": false,
          "internalType": "uint256",
          "name": "id",
          "type": "uint256"
        },
        {
          "indexed": false,
          "internalType": "string",
          "name": "name",
          "type": "string"
        }
      ],
      "name": "CommodityCreated",
      "type": "event"
    },
    {
      "anonymous": false,
      "inputs": [
        {
          "indexed": false,
          "internalType": "uint256",
          "name": "id",
          "type": "uint256"
        }
      ],
      "name": "CommoditySold",
      "type": "event"
    },
    {
      "inputs": [],
      "name": "commodityCount",
      "outputs": [
        {
          "internalType": "uint256",
          "name": "",
          "type": "uint256"
        }
      ],
      "stateMutability": "view",
      "type": "function",
      "constant": true
    },
    {
      "inputs": [
        {
          "internalType": "uint256",
          "name": "",
          "type": "uint256"
        }
      ],
      "name": "commodityList",
      "outputs": [
        {
          "internalType": "uint256",
          "name": "id",
          "type": "uint256"
        },
        {
          "internalType": "string",
          "name": "name",
          "type": "string"
        },
        {
          "internalType": "uint256",
          "name": "price",
          "type": "uint256"
        },
        {
          "internalType": "string",
          "name": "category",
          "type": "string"
        },
        {
          "internalType": "string",
          "name": "imgPath",
          "type": "string"
        },
        {
          "internalType": "string",
          "name": "description",
          "type": "string"
        },
        {
          "internalType": "address",
          "name": "sellerAddress",
          "type": "address"
        },
        {
          "internalType": "uint256",
          "name": "soldCount",
          "type": "uint256"
        },
        {
          "internalType": "bool",
          "name": "isDeleted",
          "type": "bool"
        }
      ],
      "stateMutability": "view",
      "type": "function",
      "constant": true
    },
    {
      "inputs": [],
      "name": "purchaseCount",
      "outputs": [
        {
          "internalType": "uint256",
          "name": "",
          "type": "uint256"
        }
      ],
      "stateMutability": "view",
      "type": "function",
      "constant": true
    },
    {
      "inputs": [
        {
          "internalType": "uint256",
          "name": "",
          "type": "uint256"
        }
      ],
      "name": "purchaseHistoryList",
      "outputs": [
        {
          "internalType": "uint256",
          "name": "id",
          "type": "uint256"
        },
        {
          "internalType": "uint256",
          "name": "commodityId",
          "type": "uint256"
        },
        {
          "internalType": "address",
          "name": "buyerAddress",
          "type": "address"
        },
        {
          "internalType": "string",
          "name": "purchaseTimestamp",
          "type": "string"
        }
      ],
      "stateMutability": "view",
      "type": "function",
      "constant": true
    },
    {
      "inputs": [
        {
          "internalType": "string",
          "name": "_name",
          "type": "string"
        },
        {
          "internalType": "uint256",
          "name": "_price",
          "type": "uint256"
        },
        {
          "internalType": "string",
          "name": "_category",
          "type": "string"
        },
        {
          "internalType": "string",
          "name": "_imgPath",
          "type": "string"
        },
        {
          "internalType": "string",
          "name": "description",
          "type": "string"
        },
        {
          "internalType": "address",
          "name": "sellerAddress",
          "type": "address"
        }
      ],
      "name": "createCommodity",
      "outputs": [],
      "stateMutability": "nonpayable",
      "type": "function"
    },
    {
      "inputs": [
        {
          "internalType": "uint256",
          "name": "_id",
          "type": "uint256"
        },
        {
          "internalType": "address",
          "name": "buyerAddress",
          "type": "address"
        },
        {
          "internalType": "string",
          "name": "timestamp",
          "type": "string"
        }
      ],
      "name": "soldCommodity",
      "outputs": [],
      "stateMutability": "nonpayable",
      "type": "function"
    },
    {
      "inputs": [
        {
          "internalType": "uint256",
          "name": "_id",
          "type": "uint256"
        }
      ],
      "name": "deleteCommodity",
      "outputs": [],
      "stateMutability": "nonpayable",
      "type": "function"
    }
  ],
  "bytecode": "0x608060405260008055600060025534801561001957600080fd5b50611848806100296000396000f3fe608060405234801561001057600080fd5b506004361061007d5760003560e01c806375c60ea71161005b57806375c60ea7146102575780638ffc2d09146102855780639e0783b6146104ab578063efea6dbf146107555761007d565b80632b85ed9c1461008257806336bf4508146100a05780634937559514610185575b600080fd5b61008a610773565b6040518082815260200191505060405180910390f35b610183600480360360608110156100b657600080fd5b8101908080359060200190929190803573ffffffffffffffffffffffffffffffffffffffff169060200190929190803590602001906401000000008111156100fd57600080fd5b82018360208201111561010f57600080fd5b8035906020019184600183028401116401000000008311171561013157600080fd5b91908080601f016020809104026020016040519081016040528093929190818152602001838380828437600081840152601f19601f820116905080830192505050505050509192919290505050610779565b005b6101b16004803603602081101561019b57600080fd5b8101908080359060200190929190505050610d01565b604051808581526020018481526020018373ffffffffffffffffffffffffffffffffffffffff16815260200180602001828103825283818151815260200191508051906020019080838360005b838110156102195780820151818401526020810190506101fe565b50505050905090810190601f1680156102465780820380516001836020036101000a031916815260200191505b509550505050505060405180910390f35b6102836004803603602081101561026d57600080fd5b8101908080359060200190929190505050610df9565b005b6102b16004803603602081101561029b57600080fd5b810190808035906020019092919050505061125a565b604051808a8152602001806020018981526020018060200180602001806020018873ffffffffffffffffffffffffffffffffffffffff168152602001878152602001861515815260200185810385528d818151815260200191508051906020019080838360005b83811015610333578082015181840152602081019050610318565b50505050905090810190601f1680156103605780820380516001836020036101000a031916815260200191505b5085810384528b818151815260200191508051906020019080838360005b8381101561039957808201518184015260208101905061037e565b50505050905090810190601f1680156103c65780820380516001836020036101000a031916815260200191505b5085810383528a818151815260200191508051906020019080838360005b838110156103ff5780820151818401526020810190506103e4565b50505050905090810190601f16801561042c5780820380516001836020036101000a031916815260200191505b50858103825289818151815260200191508051906020019080838360005b8381101561046557808201518184015260208101905061044a565b50505050905090810190601f1680156104925780820380516001836020036101000a031916815260200191505b509d505050505050505050505050505060405180910390f35b610753600480360360c08110156104c157600080fd5b81019080803590602001906401000000008111156104de57600080fd5b8201836020820111156104f057600080fd5b8035906020019184600183028401116401000000008311171561051257600080fd5b91908080601f016020809104026020016040519081016040528093929190818152602001838380828437600081840152601f19601f820116905080830192505050505050509192919290803590602001909291908035906020019064010000000081111561057f57600080fd5b82018360208201111561059157600080fd5b803590602001918460018302840111640100000000831117156105b357600080fd5b91908080601f016020809104026020016040519081016040528093929190818152602001838380828437600081840152601f19601f8201169050808301925050505050505091929192908035906020019064010000000081111561061657600080fd5b82018360208201111561062857600080fd5b8035906020019184600183028401116401000000008311171561064a57600080fd5b91908080601f016020809104026020016040519081016040528093929190818152602001838380828437600081840152601f19601f820116905080830192505050505050509192919290803590602001906401000000008111156106ad57600080fd5b8201836020820111156106bf57600080fd5b803590602001918460018302840111640100000000831117156106e157600080fd5b91908080601f016020809104026020016040519081016040528093929190818152602001838380828437600081840152601f19601f820116905080830192505050505050509192919290803573ffffffffffffffffffffffffffffffffffffffff169060200190929190505050611535565b005b61075d611761565b6040518082815260200191505060405180910390f35b60025481565b6000600160008581526020019081526020016000206040518061012001604052908160008201548152602001600182018054600181600116156101000203166002900480601f01602080910402602001604051908101604052809291908181526020018280546001816001161561010002031660029004801561083d5780601f106108125761010080835404028352916020019161083d565b820191906000526020600020905b81548152906001019060200180831161082057829003601f168201915b5050505050815260200160028201548152602001600382018054600181600116156101000203166002900480601f0160208091040260200160405190810160405280929190818152602001828054600181600116156101000203166002900480156108e95780601f106108be576101008083540402835291602001916108e9565b820191906000526020600020905b8154815290600101906020018083116108cc57829003601f168201915b50505050508152602001600482018054600181600116156101000203166002900480601f01602080910402602001604051908101604052809291908181526020018280546001816001161561010002031660029004801561098b5780601f106109605761010080835404028352916020019161098b565b820191906000526020600020905b81548152906001019060200180831161096e57829003601f168201915b50505050508152602001600582018054600181600116156101000203166002900480601f016020809104026020016040519081016040528092919081815260200182805460018160011615610100020316600290048015610a2d5780601f10610a0257610100808354040283529160200191610a2d565b820191906000526020600020905b815481529060010190602001808311610a1057829003601f168201915b505050505081526020016006820160009054906101000a900473ffffffffffffffffffffffffffffffffffffffff1673ffffffffffffffffffffffffffffffffffffffff1673ffffffffffffffffffffffffffffffffffffffff168152602001600782015481526020016008820160009054906101000a900460ff16151515158152505090508060e0018051809190600101815250508060016000868152602001908152602001600020600082015181600001556020820151816001019080519060200190610afd929190611767565b50604082015181600201556060820151816003019080519060200190610b24929190611767565b506080820151816004019080519060200190610b41929190611767565b5060a0820151816005019080519060200190610b5e929190611767565b5060c08201518160060160006101000a81548173ffffffffffffffffffffffffffffffffffffffff021916908373ffffffffffffffffffffffffffffffffffffffff16021790555060e082015181600701556101008201518160080160006101000a81548160ff0219169083151502179055509050506002600081548092919060010191905055506003604051806080016040528060025481526020018681526020018573ffffffffffffffffffffffffffffffffffffffff168152602001848152509080600181540180825580915050600190039060005260206000209060040201600090919091909150600082015181600001556020820151816001015560408201518160020160006101000a81548173ffffffffffffffffffffffffffffffffffffffff021916908373ffffffffffffffffffffffffffffffffffffffff1602179055506060820151816003019080519060200190610cc1929190611767565b5050507fbd5993871c81a22c73adbe68435e5b5ea707f33fe97d641d0e79c82b211b5c7f846040518082815260200191505060405180910390a150505050565b60038181548110610d1157600080fd5b90600052602060002090600402016000915090508060000154908060010154908060020160009054906101000a900473ffffffffffffffffffffffffffffffffffffffff1690806003018054600181600116156101000203166002900480601f016020809104026020016040519081016040528092919081815260200182805460018160011615610100020316600290048015610def5780601f10610dc457610100808354040283529160200191610def565b820191906000526020600020905b815481529060010190602001808311610dd257829003601f168201915b5050505050905084565b6000600160008381526020019081526020016000206040518061012001604052908160008201548152602001600182018054600181600116156101000203166002900480601f016020809104026020016040519081016040528092919081815260200182805460018160011615610100020316600290048015610ebd5780601f10610e9257610100808354040283529160200191610ebd565b820191906000526020600020905b815481529060010190602001808311610ea057829003601f168201915b5050505050815260200160028201548152602001600382018054600181600116156101000203166002900480601f016020809104026020016040519081016040528092919081815260200182805460018160011615610100020316600290048015610f695780601f10610f3e57610100808354040283529160200191610f69565b820191906000526020600020905b815481529060010190602001808311610f4c57829003601f168201915b50505050508152602001600482018054600181600116156101000203166002900480601f01602080910402602001604051908101604052809291908181526020018280546001816001161561010002031660029004801561100b5780601f10610fe05761010080835404028352916020019161100b565b820191906000526020600020905b815481529060010190602001808311610fee57829003601f168201915b50505050508152602001600582018054600181600116156101000203166002900480601f0160208091040260200160405190810160405280929190818152602001828054600181600116156101000203166002900480156110ad5780601f10611082576101008083540402835291602001916110ad565b820191906000526020600020905b81548152906001019060200180831161109057829003601f168201915b505050505081526020016006820160009054906101000a900473ffffffffffffffffffffffffffffffffffffffff1673ffffffffffffffffffffffffffffffffffffffff1673ffffffffffffffffffffffffffffffffffffffff168152602001600782015481526020016008820160009054906101000a900460ff1615151515815250509050600181610100019015159081151581525050806001600084815260200190815260200160002060008201518160000155602082015181600101908051906020019061117f929190611767565b506040820151816002015560608201518160030190805190602001906111a6929190611767565b5060808201518160040190805190602001906111c3929190611767565b5060a08201518160050190805190602001906111e0929190611767565b5060c08201518160060160006101000a81548173ffffffffffffffffffffffffffffffffffffffff021916908373ffffffffffffffffffffffffffffffffffffffff16021790555060e082015181600701556101008201518160080160006101000a81548160ff0219169083151502179055509050505050565b6001602052806000526040600020600091509050806000015490806001018054600181600116156101000203166002900480601f01602080910402602001604051908101604052809291908181526020018280546001816001161561010002031660029004801561130c5780601f106112e15761010080835404028352916020019161130c565b820191906000526020600020905b8154815290600101906020018083116112ef57829003601f168201915b505050505090806002015490806003018054600181600116156101000203166002900480601f0160208091040260200160405190810160405280929190818152602001828054600181600116156101000203166002900480156113b05780601f10611385576101008083540402835291602001916113b0565b820191906000526020600020905b81548152906001019060200180831161139357829003601f168201915b505050505090806004018054600181600116156101000203166002900480601f01602080910402602001604051908101604052809291908181526020018280546001816001161561010002031660029004801561144e5780601f106114235761010080835404028352916020019161144e565b820191906000526020600020905b81548152906001019060200180831161143157829003601f168201915b505050505090806005018054600181600116156101000203166002900480601f0160208091040260200160405190810160405280929190818152602001828054600181600116156101000203166002900480156114ec5780601f106114c1576101008083540402835291602001916114ec565b820191906000526020600020905b8154815290600101906020018083116114cf57829003601f168201915b5050505050908060060160009054906101000a900473ffffffffffffffffffffffffffffffffffffffff16908060070154908060080160009054906101000a900460ff16905089565b600080815480929190600101919050555060405180610120016040528060005481526020018781526020018681526020018581526020018481526020018381526020018273ffffffffffffffffffffffffffffffffffffffff168152602001600081526020016000151581525060016000805481526020019081526020016000206000820151816000015560208201518160010190805190602001906115dc929190611767565b50604082015181600201556060820151816003019080519060200190611603929190611767565b506080820151816004019080519060200190611620929190611767565b5060a082015181600501908051906020019061163d929190611767565b5060c08201518160060160006101000a81548173ffffffffffffffffffffffffffffffffffffffff021916908373ffffffffffffffffffffffffffffffffffffffff16021790555060e082015181600701556101008201518160080160006101000a81548160ff0219169083151502179055509050507faf0968850081f0375e798b47079241b371257fc34c462abe8aae30c92c6d1553600054876040518083815260200180602001828103825283818151815260200191508051906020019080838360005b8381101561171e578082015181840152602081019050611703565b50505050905090810190601f16801561174b5780820380516001836020036101000a031916815260200191505b50935050505060405180910390a1505050505050565b60005481565b828054600181600116156101000203166002900490600052602060002090601f01602090048101928261179d57600085556117e4565b82601f106117b657805160ff19168380011785556117e4565b828001600101855582156117e4579182015b828111156117e35782518255916020019190600101906117c8565b5b5090506117f191906117f5565b5090565b5b8082111561180e5760008160009055506001016117f6565b509056fea2646970667358221220a608ad867f4baab8d48efa2913eb39467057e973bba0c380706bcba4ceee722364736f6c63430007060033",
  "immutableReferences": {},
  "source": "pragma solidity ^0.7.0;\n\ncontract Market {\n    // Struct\n    struct Commodity {\n        uint id;\n        string name;\n        uint price;\n\n        string category;\n        string imgPath;\n        string description;\n        address sellerAddress;\n\n        uint soldCount;\n        bool isDeleted;\n    }\n\n    struct PurchaseHistory {\n        uint id;\n        uint commodityId;\n        address buyerAddress;\n        string purchaseTimestamp;\n    }\n\n    // Globals\n    uint public commodityCount = 0;\n    mapping(uint => Commodity) public commodityList;\n    uint public purchaseCount = 0;\n    PurchaseHistory[] public purchaseHistoryList;\n\n    // Events\n    event CommodityCreated(\n        uint id,\n        string name\n    );\n\n    event CommoditySold(\n        uint id\n    );\n\n\n    function createCommodity(\n        string memory _name,\n        uint _price,\n        string memory _category,\n        string memory _imgPath,\n        string memory description,\n        address sellerAddress\n    ) public {\n        commodityCount++;\n\n        commodityList[commodityCount] = Commodity(\n            commodityCount,\n            _name,\n            _price,\n            _category,\n            _imgPath,\n            description,\n            sellerAddress,\n            0,\n            false\n        );\n\n        emit CommodityCreated(commodityCount, _name);\n    }\n\n    function soldCommodity(uint _id, address buyerAddress, string memory timestamp) public {\n        Commodity memory _commodity = commodityList[_id];\n        _commodity.soldCount++;\n\n        commodityList[_id] = _commodity;\n\n        purchaseCount++;\n        purchaseHistoryList.push(PurchaseHistory(\n            purchaseCount,\n            _id,\n            buyerAddress,\n            timestamp\n        ));\n        emit CommoditySold(_id);\n    }\n\n    function deleteCommodity(uint _id) public {\n        Commodity memory _commodity = commodityList[_id];\n        _commodity.isDeleted = true;\n\n        commodityList[_id] = _commodity;\n    }\n}",
  "sourcePath": "/home/ubuntu/transaction-truffle/contracts/Market.sol",
  "compiler": {
    "name": "solc",
    "version": "0.7.6+commit.7338295f.Emscripten.clang"
  },
  "schemaVersion": "3.4.14",
  "updatedAt": "2023-05-29T10:35:54.703Z",
  "networkType": "ethereum",
  "devdoc": {
    "kind": "dev",
    "methods": {},
    "version": 1
  },
  "userdoc": {
    "kind": "user",
    "methods": {},
    "version": 1
  }
}